{
  "address": "0x0a36a9fA25155C57b72744aB1d369bA772bc40e8",
  "abi": [
    {
      "inputs": [
        {
          "internalType": "address",
          "name": "_owner",
          "type": "address"
        }
      ],
      "stateMutability": "nonpayable",
      "type": "constructor"
    },
    {
      "anonymous": false,
      "inputs": [
        {
          "indexed": true,
          "internalType": "bytes32",
          "name": "challengeId",
          "type": "bytes32"
        },
        {
          "indexed": false,
          "internalType": "address",
          "name": "participant",
          "type": "address"
        },
        {
          "indexed": false,
          "internalType": "uint256",
          "name": "amount",
          "type": "uint256"
        }
      ],
      "name": "AdditionalFundsDistributed",
      "type": "event"
    },
    {
      "anonymous": false,
      "inputs": [
        {
          "indexed": true,
          "internalType": "bytes32",
          "name": "challengeId",
          "type": "bytes32"
        },
        {
          "indexed": false,
          "internalType": "address",
          "name": "creator",
          "type": "address"
        },
        {
          "indexed": false,
          "internalType": "uint256",
          "name": "stakeAmount",
          "type": "uint256"
        },
        {
          "indexed": false,
          "internalType": "uint256",
          "name": "durationInDays",
          "type": "uint256"
        },
        {
          "indexed": false,
          "internalType": "string",
          "name": "challengeName",
          "type": "string"
        }
      ],
      "name": "ChallengeCreated",
      "type": "event"
    },
    {
      "anonymous": false,
      "inputs": [
        {
          "indexed": true,
          "internalType": "bytes32",
          "name": "challengeId",
          "type": "bytes32"
        },
        {
          "indexed": false,
          "internalType": "address",
          "name": "user",
          "type": "address"
        },
        {
          "indexed": false,
          "internalType": "uint256",
          "name": "amount",
          "type": "uint256"
        }
      ],
      "name": "FundsRefunded",
      "type": "event"
    },
    {
      "anonymous": false,
      "inputs": [
        {
          "indexed": true,
          "internalType": "bytes32",
          "name": "challengeId",
          "type": "bytes32"
        },
        {
          "indexed": false,
          "internalType": "address",
          "name": "user",
          "type": "address"
        },
        {
          "indexed": false,
          "internalType": "uint256",
          "name": "day",
          "type": "uint256"
        }
      ],
      "name": "TaskCompleted",
      "type": "event"
    },
    {
      "anonymous": false,
      "inputs": [
        {
          "indexed": true,
          "internalType": "bytes32",
          "name": "challengeId",
          "type": "bytes32"
        },
        {
          "indexed": false,
          "internalType": "address",
          "name": "voter",
          "type": "address"
        },
        {
          "indexed": false,
          "internalType": "address",
          "name": "participant",
          "type": "address"
        },
        {
          "indexed": false,
          "internalType": "uint256",
          "name": "day",
          "type": "uint256"
        },
        {
          "indexed": false,
          "internalType": "bool",
          "name": "inFavor",
          "type": "bool"
        }
      ],
      "name": "TaskVoted",
      "type": "event"
    },
    {
      "anonymous": false,
      "inputs": [
        {
          "indexed": true,
          "internalType": "bytes32",
          "name": "challengeId",
          "type": "bytes32"
        },
        {
          "indexed": false,
          "internalType": "address",
          "name": "user",
          "type": "address"
        }
      ],
      "name": "UserJoined",
      "type": "event"
    },
    {
      "inputs": [
        {
          "internalType": "uint256",
          "name": "",
          "type": "uint256"
        }
      ],
      "name": "challengeIds",
      "outputs": [
        {
          "internalType": "bytes32",
          "name": "",
          "type": "bytes32"
        }
      ],
      "stateMutability": "view",
      "type": "function"
    },
    {
      "inputs": [
        {
          "internalType": "bytes32",
          "name": "",
          "type": "bytes32"
        }
      ],
      "name": "challenges",
      "outputs": [
        {
          "internalType": "address",
          "name": "creator",
          "type": "address"
        },
        {
          "internalType": "uint256",
          "name": "stakeAmount",
          "type": "uint256"
        },
        {
          "internalType": "uint256",
          "name": "totalStaked",
          "type": "uint256"
        },
        {
          "internalType": "uint256",
          "name": "creationTime",
          "type": "uint256"
        },
        {
          "internalType": "uint256",
          "name": "durationInDays",
          "type": "uint256"
        },
        {
          "internalType": "string",
          "name": "challengeName",
          "type": "string"
        },
        {
          "internalType": "string",
          "name": "description",
          "type": "string"
        },
        {
          "internalType": "bool",
          "name": "fundsDistributed",
          "type": "bool"
        }
      ],
      "stateMutability": "view",
      "type": "function"
    },
    {
      "inputs": [
        {
          "internalType": "bytes32",
          "name": "_challengeId",
          "type": "bytes32"
        }
      ],
      "name": "claimRefund",
      "outputs": [],
      "stateMutability": "nonpayable",
      "type": "function"
    },
    {
      "inputs": [
        {
          "internalType": "bytes32",
          "name": "_challengeId",
          "type": "bytes32"
        },
        {
          "internalType": "uint256",
          "name": "_durationInDays",
          "type": "uint256"
        },
        {
          "internalType": "string",
          "name": "_challengeName",
          "type": "string"
        },
        {
          "internalType": "string",
          "name": "_description",
          "type": "string"
        }
      ],
      "name": "createChallenge",
      "outputs": [
        {
          "internalType": "bytes32",
          "name": "",
          "type": "bytes32"
        }
      ],
      "stateMutability": "payable",
      "type": "function"
    },
    {
      "inputs": [
        {
          "internalType": "bytes32",
          "name": "_challengeId",
          "type": "bytes32"
        }
      ],
      "name": "distributeRemainingFunds",
      "outputs": [],
      "stateMutability": "nonpayable",
      "type": "function"
    },
    {
      "inputs": [],
      "name": "getAllChallenges",
      "outputs": [
        {
          "internalType": "bytes32[]",
          "name": "",
          "type": "bytes32[]"
        }
      ],
      "stateMutability": "view",
      "type": "function"
    },
    {
      "inputs": [],
      "name": "getChallengeCount",
      "outputs": [
        {
          "internalType": "uint256",
          "name": "",
          "type": "uint256"
        }
      ],
      "stateMutability": "view",
      "type": "function"
    },
    {
      "inputs": [
        {
          "internalType": "bytes32",
          "name": "_challengeId",
          "type": "bytes32"
        }
      ],
      "name": "getChallengeInfo",
      "outputs": [
        {
          "internalType": "address",
          "name": "creator",
          "type": "address"
        },
        {
          "internalType": "uint256",
          "name": "stakeAmount",
          "type": "uint256"
        },
        {
          "internalType": "uint256",
          "name": "totalStaked",
          "type": "uint256"
        },
        {
          "internalType": "uint256",
          "name": "creationTime",
          "type": "uint256"
        },
        {
          "internalType": "uint256",
          "name": "durationInDays",
          "type": "uint256"
        },
        {
          "internalType": "uint256",
          "name": "participantCount",
          "type": "uint256"
        },
        {
          "internalType": "string",
          "name": "challengeName",
          "type": "string"
        },
        {
          "internalType": "string",
          "name": "description",
          "type": "string"
        }
      ],
      "stateMutability": "view",
      "type": "function"
    },
    {
      "inputs": [
        {
          "internalType": "bytes32",
          "name": "_challengeId",
          "type": "bytes32"
        }
      ],
      "name": "getParticipants",
      "outputs": [
        {
          "internalType": "address[]",
          "name": "",
          "type": "address[]"
        }
      ],
      "stateMutability": "view",
      "type": "function"
    },
    {
      "inputs": [
        {
          "internalType": "bytes32",
          "name": "_challengeId",
          "type": "bytes32"
        },
        {
          "internalType": "address",
          "name": "_participant",
          "type": "address"
        },
        {
          "internalType": "uint256",
          "name": "_day",
          "type": "uint256"
        }
      ],
      "name": "getTaskStatus",
      "outputs": [
        {
          "internalType": "bool",
          "name": "completed",
          "type": "bool"
        },
        {
          "internalType": "uint256",
          "name": "votesFor",
          "type": "uint256"
        },
        {
          "internalType": "uint256",
          "name": "votesAgainst",
          "type": "uint256"
        }
      ],
      "stateMutability": "view",
      "type": "function"
    },
    {
      "inputs": [],
      "name": "greeting",
      "outputs": [
        {
          "internalType": "string",
          "name": "",
          "type": "string"
        }
      ],
      "stateMutability": "view",
      "type": "function"
    },
    {
      "inputs": [
        {
          "internalType": "bytes32",
          "name": "_challengeId",
          "type": "bytes32"
        }
      ],
      "name": "joinChallenge",
      "outputs": [],
      "stateMutability": "payable",
      "type": "function"
    },
    {
      "inputs": [],
      "name": "owner",
      "outputs": [
        {
          "internalType": "address",
          "name": "",
          "type": "address"
        }
      ],
      "stateMutability": "view",
      "type": "function"
    },
    {
      "inputs": [
        {
          "internalType": "bytes32",
          "name": "_challengeId",
          "type": "bytes32"
        },
        {
          "internalType": "address",
          "name": "_participant",
          "type": "address"
        },
        {
          "internalType": "uint256",
          "name": "_day",
          "type": "uint256"
        },
        {
          "internalType": "bool",
          "name": "_inFavor",
          "type": "bool"
        }
      ],
      "name": "voteOnTask",
      "outputs": [],
      "stateMutability": "nonpayable",
      "type": "function"
    },
    {
      "stateMutability": "payable",
      "type": "receive"
    }
  ],
  "transactionHash": "0x68e5a8c89f917b24452ead8aef6d8635c20cc0da21ca050bb7051b16a06f9d79",
  "args": [
    "0x608E1Eb94FeF65cFE937C14229F674c8EE678981"
  ],
  "numDeployments": 1,
  "solcInputHash": "6019d9b2d161d2caf0597adfbf67d07d",
  "bytecode": "0x60e0604052601c60a09081527f5374616b65537465703a206275696c6420796f7572206861626974730000000060c0526000906200003e908262000126565b503480156200004c57600080fd5b5060405162001aff38038062001aff8339810160408190526200006f91620001f2565b6001600160a01b031660805262000224565b634e487b7160e01b600052604160045260246000fd5b600181811c90821680620000ac57607f821691505b602082108103620000cd57634e487b7160e01b600052602260045260246000fd5b50919050565b601f8211156200012157600081815260208120601f850160051c81016020861015620000fc5750805b601f850160051c820191505b818110156200011d5782815560010162000108565b5050505b505050565b81516001600160401b0381111562000142576200014262000081565b6200015a8162000153845462000097565b84620000d3565b602080601f831160018114620001925760008415620001795750858301515b600019600386901b1c1916600185901b1785556200011d565b600085815260208120601f198616915b82811015620001c357888601518255948401946001909101908401620001a2565b5085821015620001e25787850151600019600388901b60f8161c191681555b5050505050600190811b01905550565b6000602082840312156200020557600080fd5b81516001600160a01b03811681146200021d57600080fd5b9392505050565b6080516118bf62000240600039600061029c01526118bf6000f3fe6080604052600436106100e15760003560e01c80637a5147751161007f5780638f1adfe9116100595780638f1adfe9146102d657806393cdf910146102f6578063c1e69b6614610309578063ef690cc01461033d57600080fd5b80637a51477514610234578063829ef1ac146102685780638da5cb5b1461028a57600080fd5b806323f6bfb2116100bb57806323f6bfb2146101605780633143940d146101805780634236259c1461020157806371de2ffc1461021457600080fd5b806308ba0f7e146100ed5780630933f4671461010f5780630b0235be1461013357600080fd5b366100e857005b600080fd5b3480156100f957600080fd5b5061010d6101083660046112fc565b61035f565b005b34801561011b57600080fd5b506002545b6040519081526020015b60405180910390f35b34801561013f57600080fd5b5061015361014e366004611349565b6105c2565b60405161012a9190611362565b34801561016c57600080fd5b5061012061017b366004611349565b610631565b34801561018c57600080fd5b506101e461019b3660046113af565b60008381526001602081815260408084206001600160a01b0387168552600901825280842085855290915290912080549181015460029091015460ff9092169193509350939050565b60408051931515845260208401929092529082015260600161012a565b61012061020f366004611487565b610652565b34801561022057600080fd5b5061010d61022f366004611349565b610883565b34801561024057600080fd5b5061025461024f366004611349565b610a7d565b60405161012a989796959493929190611544565b34801561027457600080fd5b5061027d610c10565b60405161012a91906115a7565b34801561029657600080fd5b506102be7f000000000000000000000000000000000000000000000000000000000000000081565b6040516001600160a01b03909116815260200161012a565b3480156102e257600080fd5b5061010d6102f1366004611349565b610c68565b61010d610304366004611349565b610f32565b34801561031557600080fd5b50610329610324366004611349565b6110ef565b60405161012a9897969594939291906115df565b34801561034957600080fd5b50610352611252565b60405161012a9190611645565b6000848152600160209081526040808320338452600781019092529091205460ff166103d25760405162461bcd60e51b815260206004820152601a60248201527f4f6e6c79207061727469636970616e74732063616e20766f746500000000000060448201526064015b60405180910390fd5b806004015483106104135760405162461bcd60e51b815260206004820152600b60248201526a496e76616c69642064617960a81b60448201526064016103c9565b6001600160a01b03841660009081526009820160209081526040808320868452825280832033845260030190915290205460ff16156104845760405162461bcd60e51b815260206004820152600d60248201526c105b1c9958591e481d9bdd1959609a1b60448201526064016103c9565b6001600160a01b03841660009081526009820160209081526040808320868452825280832033845260038101909252909120805460ff1916600117905582156104e3576001810180549060006104d983611675565b91905055506104fb565b6002810180549060006104f583611675565b91905055505b600882015461050c9060029061168e565b8160010154111561056757805460ff19166001178155604080516001600160a01b03871681526020810186905287917f84500df4019e2ca09000c3d12cba4931da1581c6560d6edbffeb258ea077f05b910160405180910390a25b604080513381526001600160a01b0387166020820152908101859052831515606082015286907f9d8dfe00aa27d5164495c52c3378f3bbdc4da0d97136e57f1d585964e3b477979060800160405180910390a2505050505050565b60008181526001602090815260409182902060080180548351818402810184019094528084526060939283018282801561062557602002820191906000526020600020905b81546001600160a01b03168152600190910190602001808311610607575b50505050509050919050565b6002818154811061064157600080fd5b600091825260209091200154905081565b60008034116106b55760405162461bcd60e51b815260206004820152602960248201527f4d757374207374616b6520736f6d652045544820746f206372656174652061206044820152686368616c6c656e676560b81b60648201526084016103c9565b600084116107055760405162461bcd60e51b815260206004820152601f60248201527f4475726174696f6e206d7573742062652067726561746572207468616e20300060448201526064016103c9565b6000858152600160205260409020546001600160a01b03161561076a5760405162461bcd60e51b815260206004820152601b60248201527f4368616c6c656e676520494420616c726561647920657869737473000000000060448201526064016103c9565b600085815260016020819052604090912080546001600160a01b0319163317815534918101829055600281019190915542600382015560048101859055600581016107b58582611739565b50600681016107c48482611739565b503360008181526007830160209081526040808320805460ff19166001908117909155600886018054808301825590855292842090920180546001600160a01b031916851790556002805492830181559092527f405787fa12a823e0f2b7631cc41b3ba8828b3321ca811111fa75cd3aa3bb5ace018890555187917fd3e9ee024d85b57f10cd2f9cb2754ba329225da3ba652c9f00273d899f95d98f91610871919034908a908a906117f9565b60405180910390a25093949350505050565b6000818152600160209081526040808320338452600781019092529091205460ff166108e55760405162461bcd60e51b8152602060048201526011602482015270139bdd0818481c185c9d1a58da5c185b9d607a1b60448201526064016103c9565b60048101546108f79062015180611830565b8160030154610906919061184d565b42101561094b5760405162461bcd60e51b815260206004820152601360248201527210da185b1b195b99d9481b9bdd08195b991959606a1b60448201526064016103c9565b6000805b82600401548110156109a057336000908152600984016020908152604080832084845290915290205460ff161561098e578161098a81611675565b9250505b8061099881611675565b91505061094f565b50600082600401548284600101546109b89190611830565b6109c2919061168e565b3360009081526007850160205260408120805460ff19169055600185015460028601805493945090929091906109f9908490611860565b9091555050336000818152600a850160205260408082208590555183156108fc0291849190818181858888f19350505050158015610a3b573d6000803e3d6000fd5b50604080513381526020810183905285917fbb0af7321a16834399146ab3819202a61859e53d69bd9cf889c444dfe69f1bb2910160405180910390a250505050565b6000806000806000806060806000600160008b815260200190815260200160002090508060000160009054906101000a90046001600160a01b0316816001015482600201548360030154846004015485600801805490508660050187600601818054610ae8906116b0565b80601f0160208091040260200160405190810160405280929190818152602001828054610b14906116b0565b8015610b615780601f10610b3657610100808354040283529160200191610b61565b820191906000526020600020905b815481529060010190602001808311610b4457829003601f168201915b50505050509150808054610b74906116b0565b80601f0160208091040260200160405190810160405280929190818152602001828054610ba0906116b0565b8015610bed5780601f10610bc257610100808354040283529160200191610bed565b820191906000526020600020905b815481529060010190602001808311610bd057829003601f168201915b505050505090509850985098509850985098509850985050919395975091939597565b60606002805480602002602001604051908101604052809291908181526020018280548015610c5e57602002820191906000526020600020905b815481526020019060010190808311610c4a575b5050505050905090565b60008181526001602052604090206004810154610c889062015180611830565b8160030154610c97919061184d565b610ca49062093a8061184d565b421015610cea5760405162461bcd60e51b81526020600482015260146024820152732bb0b4ba103832b934b7b2103737ba1037bb32b960611b60448201526064016103c9565b600b81015460ff1615610d3f5760405162461bcd60e51b815260206004820152601960248201527f46756e647320616c72656164792064697374726962757465640000000000000060448201526064016103c9565b4780610d865760405162461bcd60e51b81526020600482015260166024820152754e6f2066756e647320746f206469737472696275746560501b60448201526064016103c9565b6000806000805b6008860154811015610e24576000866008018281548110610db057610db0611873565b60009182526020808320909101546001600160a01b0316808352600a8a01909152604090912054909150610de4818761184d565b955084811115610dfa5780945060019350610e0f565b848103610e0f5783610e0b81611675565b9450505b50508080610e1c90611675565b915050610d8d565b506000610e31828661168e565b905060005b6008870154811015610f19576000876008018281548110610e5957610e59611873565b60009182526020808320909101546001600160a01b0316808352600a8b01909152604090912054909150859003610f06576040516001600160a01b0382169084156108fc029085906000818181858888f19350505050158015610ec0573d6000803e3d6000fd5b50604080516001600160a01b0383168152602081018590528a917f9541738d2770b778715936e1bbd1222bf3f03c4aae322b1fba8914160912ac8a910160405180910390a25b5080610f1181611675565b915050610e36565b505050600b909301805460ff1916600117905550505050565b6000818152600160209081526040808320338452600781019092529091205460ff1615610fa15760405162461bcd60e51b815260206004820152601d60248201527f416c7265616479206a6f696e65642074686973206368616c6c656e676500000060448201526064016103c9565b80600101543414610ff45760405162461bcd60e51b815260206004820152601760248201527f4d757374207374616b6520657861637420616d6f756e7400000000000000000060448201526064016103c9565b60048101546110069062015180611830565b8160030154611015919061184d565b42106110595760405162461bcd60e51b815260206004820152601360248201527210da185b1b195b99d9481a185cc8195b991959606a1b60448201526064016103c9565b33600081815260078301602090815260408220805460ff19166001908117909155600885018054918201815583529082200180546001600160a01b0319169092179091556002820180543492906110b190849061184d565b909155505060405133815282907fc043d6c60c8f4bf74f9dfa4be969cae204e016acdbd22d6d5e6c66e9f6d40d9d9060200160405180910390a25050565b60016020819052600091825260409091208054918101546002820154600383015460048401546005850180546001600160a01b03909716969495939492939192611138906116b0565b80601f0160208091040260200160405190810160405280929190818152602001828054611164906116b0565b80156111b15780601f10611186576101008083540402835291602001916111b1565b820191906000526020600020905b81548152906001019060200180831161119457829003601f168201915b5050505050908060060180546111c6906116b0565b80601f01602080910402602001604051908101604052809291908181526020018280546111f2906116b0565b801561123f5780601f106112145761010080835404028352916020019161123f565b820191906000526020600020905b81548152906001019060200180831161122257829003601f168201915b505050600b909301549192505060ff1688565b6000805461125f906116b0565b80601f016020809104026020016040519081016040528092919081815260200182805461128b906116b0565b80156112d85780601f106112ad576101008083540402835291602001916112d8565b820191906000526020600020905b8154815290600101906020018083116112bb57829003601f168201915b505050505081565b80356001600160a01b03811681146112f757600080fd5b919050565b6000806000806080858703121561131257600080fd5b84359350611322602086016112e0565b9250604085013591506060850135801515811461133e57600080fd5b939692955090935050565b60006020828403121561135b57600080fd5b5035919050565b6020808252825182820181905260009190848201906040850190845b818110156113a35783516001600160a01b03168352928401929184019160010161137e565b50909695505050505050565b6000806000606084860312156113c457600080fd5b833592506113d4602085016112e0565b9150604084013590509250925092565b634e487b7160e01b600052604160045260246000fd5b600082601f83011261140b57600080fd5b813567ffffffffffffffff80821115611426576114266113e4565b604051601f8301601f19908116603f0116810190828211818310171561144e5761144e6113e4565b8160405283815286602085880101111561146757600080fd5b836020870160208301376000602085830101528094505050505092915050565b6000806000806080858703121561149d57600080fd5b8435935060208501359250604085013567ffffffffffffffff808211156114c357600080fd5b6114cf888389016113fa565b935060608701359150808211156114e557600080fd5b506114f2878288016113fa565b91505092959194509250565b6000815180845260005b8181101561152457602081850181015186830182015201611508565b506000602082860101526020601f19601f83011685010191505092915050565b600061010060018060a01b038b1683528960208401528860408401528760608401528660808401528560a08401528060c0840152611584818401866114fe565b905082810360e084015261159881856114fe565b9b9a5050505050505050505050565b6020808252825182820181905260009190848201906040850190845b818110156113a3578351835292840192918401916001016115c3565b600061010060018060a01b038b1683528960208401528860408401528760608401528660808401528060a0840152611619818401876114fe565b905082810360c084015261162d81866114fe565b91505082151560e08301529998505050505050505050565b60208152600061165860208301846114fe565b9392505050565b634e487b7160e01b600052601160045260246000fd5b6000600182016116875761168761165f565b5060010190565b6000826116ab57634e487b7160e01b600052601260045260246000fd5b500490565b600181811c908216806116c457607f821691505b6020821081036116e457634e487b7160e01b600052602260045260246000fd5b50919050565b601f82111561173457600081815260208120601f850160051c810160208610156117115750805b601f850160051c820191505b818110156117305782815560010161171d565b5050505b505050565b815167ffffffffffffffff811115611753576117536113e4565b6117678161176184546116b0565b846116ea565b602080601f83116001811461179c57600084156117845750858301515b600019600386901b1c1916600185901b178555611730565b600085815260208120601f198616915b828110156117cb578886015182559484019460019091019084016117ac565b50858210156117e95787850151600019600388901b60f8161c191681555b5050505050600190811b01905550565b60018060a01b038516815283602082015282604082015260806060820152600061182660808301846114fe565b9695505050505050565b80820281158282048414176118475761184761165f565b92915050565b808201808211156118475761184761165f565b818103818111156118475761184761165f565b634e487b7160e01b600052603260045260246000fdfea2646970667358221220a6ac3db1345d9ee0f03e4755ff255e2813b615aec93f120da458484e7cd4745564736f6c63430008110033",
  "devdoc": {
    "author": "BuidlGuidl",
    "kind": "dev",
    "methods": {},
    "version": 1
  },
  "userdoc": {
    "kind": "user",
    "methods": {},
    "notice": "A smart contract that allows changing a state variable of the contract and tracking the changes It also allows the owner to withdraw the Ether in the contract",
    "version": 1
  },
  "storageLayout": {
    "storage": [
      {
        "astId": 8,
        "contract": "contracts/YourContract.sol:YourContract",
        "label": "greeting",
        "offset": 0,
        "slot": "0",
        "type": "t_string_storage"
      },
      {
        "astId": 59,
        "contract": "contracts/YourContract.sol:YourContract",
        "label": "challenges",
        "offset": 0,
        "slot": "1",
        "type": "t_mapping(t_bytes32,t_struct(Challenge)54_storage)"
      },
      {
        "astId": 62,
        "contract": "contracts/YourContract.sol:YourContract",
        "label": "challengeIds",
        "offset": 0,
        "slot": "2",
        "type": "t_array(t_bytes32)dyn_storage"
      }
    ],
    "types": {
      "t_address": {
        "encoding": "inplace",
        "label": "address",
        "numberOfBytes": "20"
      },
      "t_array(t_address)dyn_storage": {
        "base": "t_address",
        "encoding": "dynamic_array",
        "label": "address[]",
        "numberOfBytes": "32"
      },
      "t_array(t_bytes32)dyn_storage": {
        "base": "t_bytes32",
        "encoding": "dynamic_array",
        "label": "bytes32[]",
        "numberOfBytes": "32"
      },
      "t_bool": {
        "encoding": "inplace",
        "label": "bool",
        "numberOfBytes": "1"
      },
      "t_bytes32": {
        "encoding": "inplace",
        "label": "bytes32",
        "numberOfBytes": "32"
      },
      "t_mapping(t_address,t_bool)": {
        "encoding": "mapping",
        "key": "t_address",
        "label": "mapping(address => bool)",
        "numberOfBytes": "32",
        "value": "t_bool"
      },
      "t_mapping(t_address,t_mapping(t_uint256,t_struct(Task)19_storage))": {
        "encoding": "mapping",
        "key": "t_address",
        "label": "mapping(address => mapping(uint256 => struct YourContract.Task))",
        "numberOfBytes": "32",
        "value": "t_mapping(t_uint256,t_struct(Task)19_storage)"
      },
      "t_mapping(t_address,t_uint256)": {
        "encoding": "mapping",
        "key": "t_address",
        "label": "mapping(address => uint256)",
        "numberOfBytes": "32",
        "value": "t_uint256"
      },
      "t_mapping(t_bytes32,t_struct(Challenge)54_storage)": {
        "encoding": "mapping",
        "key": "t_bytes32",
        "label": "mapping(bytes32 => struct YourContract.Challenge)",
        "numberOfBytes": "32",
        "value": "t_struct(Challenge)54_storage"
      },
      "t_mapping(t_uint256,t_struct(Task)19_storage)": {
        "encoding": "mapping",
        "key": "t_uint256",
        "label": "mapping(uint256 => struct YourContract.Task)",
        "numberOfBytes": "32",
        "value": "t_struct(Task)19_storage"
      },
      "t_string_storage": {
        "encoding": "bytes",
        "label": "string",
        "numberOfBytes": "32"
      },
      "t_struct(Challenge)54_storage": {
        "encoding": "inplace",
        "label": "struct YourContract.Challenge",
        "members": [
          {
            "astId": 21,
            "contract": "contracts/YourContract.sol:YourContract",
            "label": "creator",
            "offset": 0,
            "slot": "0",
            "type": "t_address"
          },
          {
            "astId": 23,
            "contract": "contracts/YourContract.sol:YourContract",
            "label": "stakeAmount",
            "offset": 0,
            "slot": "1",
            "type": "t_uint256"
          },
          {
            "astId": 25,
            "contract": "contracts/YourContract.sol:YourContract",
            "label": "totalStaked",
            "offset": 0,
            "slot": "2",
            "type": "t_uint256"
          },
          {
            "astId": 27,
            "contract": "contracts/YourContract.sol:YourContract",
            "label": "creationTime",
            "offset": 0,
            "slot": "3",
            "type": "t_uint256"
          },
          {
            "astId": 29,
            "contract": "contracts/YourContract.sol:YourContract",
            "label": "durationInDays",
            "offset": 0,
            "slot": "4",
            "type": "t_uint256"
          },
          {
            "astId": 31,
            "contract": "contracts/YourContract.sol:YourContract",
            "label": "challengeName",
            "offset": 0,
            "slot": "5",
            "type": "t_string_storage"
          },
          {
            "astId": 33,
            "contract": "contracts/YourContract.sol:YourContract",
            "label": "description",
            "offset": 0,
            "slot": "6",
            "type": "t_string_storage"
          },
          {
            "astId": 37,
            "contract": "contracts/YourContract.sol:YourContract",
            "label": "participants",
            "offset": 0,
            "slot": "7",
            "type": "t_mapping(t_address,t_bool)"
          },
          {
            "astId": 40,
            "contract": "contracts/YourContract.sol:YourContract",
            "label": "participantList",
            "offset": 0,
            "slot": "8",
            "type": "t_array(t_address)dyn_storage"
          },
          {
            "astId": 47,
            "contract": "contracts/YourContract.sol:YourContract",
            "label": "tasks",
            "offset": 0,
            "slot": "9",
            "type": "t_mapping(t_address,t_mapping(t_uint256,t_struct(Task)19_storage))"
          },
          {
            "astId": 51,
            "contract": "contracts/YourContract.sol:YourContract",
            "label": "participantScores",
            "offset": 0,
            "slot": "10",
            "type": "t_mapping(t_address,t_uint256)"
          },
          {
            "astId": 53,
            "contract": "contracts/YourContract.sol:YourContract",
            "label": "fundsDistributed",
            "offset": 0,
            "slot": "11",
            "type": "t_bool"
          }
        ],
        "numberOfBytes": "384"
      },
      "t_struct(Task)19_storage": {
        "encoding": "inplace",
        "label": "struct YourContract.Task",
        "members": [
          {
            "astId": 10,
            "contract": "contracts/YourContract.sol:YourContract",
            "label": "completed",
            "offset": 0,
            "slot": "0",
            "type": "t_bool"
          },
          {
            "astId": 12,
            "contract": "contracts/YourContract.sol:YourContract",
            "label": "votesFor",
            "offset": 0,
            "slot": "1",
            "type": "t_uint256"
          },
          {
            "astId": 14,
            "contract": "contracts/YourContract.sol:YourContract",
            "label": "votesAgainst",
            "offset": 0,
            "slot": "2",
            "type": "t_uint256"
          },
          {
            "astId": 18,
            "contract": "contracts/YourContract.sol:YourContract",
            "label": "hasVoted",
            "offset": 0,
            "slot": "3",
            "type": "t_mapping(t_address,t_bool)"
          }
        ],
        "numberOfBytes": "128"
      },
      "t_uint256": {
        "encoding": "inplace",
        "label": "uint256",
        "numberOfBytes": "32"
      }
    }
  }
}